:1003E1007D807C0CE4FF120506E4FF12068B7B0185
:1003F1007D407C06E4FF1206377D017F0112035226
:100401007D0FE4FF1206F87B017D407C067F01121F
:0904110006377D01E4FF0205A994
:10060200EF1FAA0670011E4A60107C0F7DFFED1DD0
:0A061200AA0470011C4A60E880F49D
:01061C0022BB
:050713001203E180FE6D
:10055600E4F5D9F5C1F5B1F5A1F591F59AF5A2F550
:10056600C2F5B2F5A2F592F59BF5D8F5C0F5B0F552
:06057600A0F590F58022C3
:10000300EF14603A14605814607314700302009E76
:100013001470030200BC240560030200D9EB1460D2
:1000230011146016240260030200D9EDF4529A52AF
:100033009B22EDF4529AED429B22ED429A22EB145D
:100043006011146016240260030200D9EDF452918A
:10005300529222EDF45291ED429222ED429122EB23
:1000630014600E1460132402706CEDF452A152A2BA
:1000730022EDF452A1ED42A222ED42A122EB146043
:100083000E1460132402704EEDF452B152B222EDFD
:10009300F452B1ED42B222ED42B122EB14600E14E0
:1000A300601324027030EDF452C152C222EDF452B7
:1000B300C1ED42C222ED42C122EB14600E14601363
:1000C30024027012EDF452D952DA22EDF452D9ED32
:0700D30042DA22ED42D922BE
:10057C00EF146013146013146013146013146013DD
:10058C00240570118D80228D90228DA0228DB02299
:06059C008DC0228DD82263
:1004AE00EF1460141460151460161460171460189D
:1004BE0024057017ED428022ED429022ED42A022DB
:0C04CE00ED42B022ED42C022ED42D822E7
:10044F00EF14601514601714601914601B14601DED
:10045F002405701DEDF4528022EDF4529022EDF43C
:10046F0052A022EDF452B022EDF452C022EDF4521C
:02047F00D82281
:1005E500EF14601314601014600D14600A14600792
:0D05F50024057006AF8022AF80227F002217
:10041A00EF14601514601714601914601B14601D22
:10042A002405701EE5805DFF22E5905DFF22E5A0B0
:10043A005DFF22E5B05DFF22E5C05DFF22E5D85DE4
:05044A00FF227F0022EB
:1004DA00EF14601414601514601614601714601871
:1004EA0024057017ED628022ED629022ED62A0224F
:0C04FA00ED62B022ED62C022ED62D8225B
:10023100EF14602414603F1460542403705CBD0FFC
:10024100075396FCEB429622ED64F0704D5396F302
:10025100EB25E025E0429622BD0F0A5396CFEBC471
:1002610054F0429622ED64F0703053963FEBC43364
:100271003354C0429622BD0F075397FCEB4297229D
:10028100BDF0175397F3EB25E025E0429722BD0F10
:0B029100095397CFEBC454F0429722B2
:10048100E4F5D2F5D1F5D3F5D4F5D553A9FD53B99A
:10049100FDFF7B017A20794075F002EFA4F582859A
:0C04A100F083E4F5F012029C0FBF08E6A7
:0104AD00222C
:0300DA00EF703193
:1000DD00F5D2F5D1F5D3F5D4F5D553A9FD53B9FD29
:1000ED00F5167B017A20794075F002E516A4F582AC
:1000FD0085F083E4F5F012029C0516E516B408E2CE
:01010D0022CF
:10010E008FCE53C8FB53C9C3EF24FD601114601F7B
:10011E002402702BC2AD53B8DF902034800953A94E
:10012E00BF53B9BF9020381202C9000000002253FD
:10013E00A97F53B97F90203C1202C9000000002213
:10050600AB07EB540FFA7018ED1D70011CEB54F09D
:10051600FFE5D254CF4FF5D28CD5AF05EFF5D422F7
:080526008ACE8CCBEDF5CA2250
:0E068B00EF700453D2FE22BF010343D20122BE
:10039A00EF54F0FC7026BD0111EF540FFFF8740101
:1003AA00088002C333D8FC42D322EF540FFFF874FB
:1003BA0001088002C333D8FCF452D322ECC4540F90
:1003CA00F5CEEF30E0047E2080027E10EEBD010300
:0603DA0042C922F452C9E1
:0103E00022FA
:10035200EF54F0FC7026BD0111EF540FFFF8740149
:10036200088002C333D8FC42D122EF540FFFF87445
:1003720001088002C333D8FCF452D122ECC4540FDA
:10038200F5CEEF540F60047E0880027E04EEBD01BC
:070392000342C922F452C925
:010399002241
:10052E00EF54F0700F53D2FDEF25E02440F582E436
:10053E003420800CEF540F25E02434F582E434206F
:08054E00F583ECF0A3EDF022AF
:1006650043D202EF25E02440F582E43420F583EC03
:05067500F0A3EDF022EE
:0806F800EDC454F04FF5D622C9
:0B06CD00EF7007EBC454F04DF5D6228F
:0B06D800EF600443D2802253D27F2247
:0705A200EAC4540FFF7D01C4
:1005A900EF700BED600443D2802253D27F228FCEAD
:0B05B900ED600443C8042253C8FB227D
:10064F00EF600543A902800353A9FDED700453B970
:06065F00FD2243B9022256
:1002FA00AE07AC03AF05EE24FE600F14601E146057
:10030A003124047042AD0402064FEF7004C2AD807E
:10031A0002D2ADEC7003C2BD22D2BD22EF700553EA
:10032A00A9BF800343A940EC700453B9BF2243B963
:10033A004022EF700553A97F800343A980EC700423
:08034A0053B97F2243B9802260
:10067A00AA0712052EAD0312039ABB01031205A2A3
:01068A00224D
:10063700AA07120665AD0312039AEA2402FF120302
:080647009ABB01031205A22277
:06070700E5D25440FF2280
:1005C400EF7006E5D25440FF22EF64026008EF6446
:1005D400036003EF70088FCEE5C85480FF227F00CC
:0105E40022F4
:0407180053D2BF22D7
:10061D00EF700453D2BF22EF64026008EF640360F1
:0A062D0003EF70058FCE53C87F2243
:06070D00E5D75440FF2275
:0C06B500EF7006E5D75440FF227F0022C2
:04071C0053D7BF22CE
:07070000EF700353D7BF2285
:0B06E300EF600443D7802253D77F2232
:0E069900EF700AED600443D7802253D77F2212
:0A06EE00E5D754C04F4D4BF5D7225D
:0E06A700EF700AE5D754C04D4B4515F5D7222C
:04014E008D08A90768
:10015200AFD5EFFEADD47C00E42DF50CEC3EF50BF3
:10016200E954F0700F53D2FDE925E02440F582E412
:100172003420800CE9540F25E02434F582E4342045
:10018200AF82F5098F0A850A82850983E0FEA3E022
:10019200FFE508B40108EB2FFFEA3EFE8007C3EF3C
:1001A2009BFFEE9AFED3EF950CEE950B40037F007A
:0E01B20022850A82850983EEF0A3EFF07F011B
:0101C000221C
:0401C1008D0DA907F0
:1001C500AFD5EFFEADD47C00E42DF511EC3EF51076
:1001D500E954F0700CE925E02440F582E4342080F0
:1001E5000CE9540F25E02434F582E43420AF82F580
:1001F5000E8F0F850F82850E83E0FEA3E0FFE50DD0
:10020500B40108EB2FFFEA3EFE8007C3EF9BFFEE2C
:100215009AFED3EF9511EE951040037F0022850FCE
:0B02250082850E83EEF0A3EFF07F0156
:0102300022AB
:030000000206C134
:0C06C100787FE4F6D8FD7581160207135F
:10029C00F8BB0111E58229F582E5833AF583E8F094
:1002AC00E5F0A3F0225009E92582C8F608A6F02251
:0D02BC00BBFE09E92582C8F2E5F008F22238
:1002C900A8828583F0D083D0821202E01202E01264
:1002D90002E01202E0E473E493A3C583C5F0C58389
:1002E900C8C582C8F0A3C583C5F0C583C8C582C87F
:0102F90022E2
:00000001FF
